{
  "_format": "hh-sol-artifact-1",
  "contractName": "Voting",
  "sourceName": "contracts/Voting.sol",
  "abi": [
    {
      "inputs": [],
      "stateMutability": "nonpayable",
      "type": "constructor"
    },
    {
      "inputs": [
        {
          "internalType": "string",
          "name": "_name",
          "type": "string"
        }
      ],
      "name": "addCandidate",
      "outputs": [],
      "stateMutability": "payable",
      "type": "function"
    },
    {
      "inputs": [],
      "name": "admin",
      "outputs": [
        {
          "internalType": "address",
          "name": "",
          "type": "address"
        }
      ],
      "stateMutability": "view",
      "type": "function"
    },
    {
      "inputs": [
        {
          "internalType": "uint256",
          "name": "",
          "type": "uint256"
        }
      ],
      "name": "candidates",
      "outputs": [
        {
          "internalType": "string",
          "name": "name",
          "type": "string"
        },
        {
          "internalType": "uint256",
          "name": "voteCount",
          "type": "uint256"
        }
      ],
      "stateMutability": "view",
      "type": "function"
    },
    {
      "inputs": [],
      "name": "commenceVoting",
      "outputs": [],
      "stateMutability": "nonpayable",
      "type": "function"
    },
    {
      "inputs": [],
      "name": "endVoting",
      "outputs": [],
      "stateMutability": "nonpayable",
      "type": "function"
    },
    {
      "inputs": [],
      "name": "getAllCandidates",
      "outputs": [
        {
          "components": [
            {
              "internalType": "string",
              "name": "name",
              "type": "string"
            },
            {
              "internalType": "uint256",
              "name": "voteCount",
              "type": "uint256"
            }
          ],
          "internalType": "struct Voting.Candidate[]",
          "name": "",
          "type": "tuple[]"
        }
      ],
      "stateMutability": "view",
      "type": "function"
    },
    {
      "inputs": [
        {
          "internalType": "uint256",
          "name": "_candidateIndex",
          "type": "uint256"
        }
      ],
      "name": "getCandidateByIndex",
      "outputs": [
        {
          "internalType": "string",
          "name": "",
          "type": "string"
        },
        {
          "internalType": "uint256",
          "name": "",
          "type": "uint256"
        }
      ],
      "stateMutability": "view",
      "type": "function"
    },
    {
      "inputs": [],
      "name": "getVoterHistory",
      "outputs": [
        {
          "components": [
            {
              "internalType": "address",
              "name": "voterAddress",
              "type": "address"
            },
            {
              "internalType": "uint256",
              "name": "votedCandidateIndex",
              "type": "uint256"
            }
          ],
          "internalType": "struct Voting.VoterHistory[]",
          "name": "",
          "type": "tuple[]"
        }
      ],
      "stateMutability": "view",
      "type": "function"
    },
    {
      "inputs": [],
      "name": "getWinner",
      "outputs": [
        {
          "internalType": "string",
          "name": "",
          "type": "string"
        }
      ],
      "stateMutability": "view",
      "type": "function"
    },
    {
      "inputs": [],
      "name": "isVotingConcluded",
      "outputs": [
        {
          "internalType": "bool",
          "name": "",
          "type": "bool"
        }
      ],
      "stateMutability": "view",
      "type": "function"
    },
    {
      "inputs": [],
      "name": "isVotingStarted",
      "outputs": [
        {
          "internalType": "bool",
          "name": "",
          "type": "bool"
        }
      ],
      "stateMutability": "view",
      "type": "function"
    },
    {
      "inputs": [],
      "name": "restartVoting",
      "outputs": [],
      "stateMutability": "nonpayable",
      "type": "function"
    },
    {
      "inputs": [
        {
          "internalType": "uint256",
          "name": "_candidateIndex",
          "type": "uint256"
        }
      ],
      "name": "vote",
      "outputs": [],
      "stateMutability": "nonpayable",
      "type": "function"
    },
    {
      "inputs": [
        {
          "internalType": "uint256",
          "name": "",
          "type": "uint256"
        }
      ],
      "name": "voterHistory",
      "outputs": [
        {
          "internalType": "address",
          "name": "voterAddress",
          "type": "address"
        },
        {
          "internalType": "uint256",
          "name": "votedCandidateIndex",
          "type": "uint256"
        }
      ],
      "stateMutability": "view",
      "type": "function"
    },
    {
      "inputs": [
        {
          "internalType": "address",
          "name": "",
          "type": "address"
        }
      ],
      "name": "voters",
      "outputs": [
        {
          "internalType": "bool",
          "name": "hasVoted",
          "type": "bool"
        },
        {
          "internalType": "uint256",
          "name": "votedCandidateIndex",
          "type": "uint256"
        }
      ],
      "stateMutability": "view",
      "type": "function"
    },
    {
      "inputs": [],
      "name": "winnerName",
      "outputs": [
        {
          "internalType": "string",
          "name": "",
          "type": "string"
        }
      ],
      "stateMutability": "view",
      "type": "function"
    }
  ],
  "bytecode": "0x60806040526000600260006101000a81548160ff0219169083151502179055506000600260016101000a81548160ff02191690831515021790555034801561004657600080fd5b50336000806101000a81548173ffffffffffffffffffffffffffffffffffffffff021916908373ffffffffffffffffffffffffffffffffffffffff160217905550611f42806100966000396000f3fe6080604052600436106100f35760003560e01c8063897b0d5d1161008a578063ab172cf511610059578063ab172cf5146102fc578063c3403ddf1461033a578063e2ba53f014610351578063f851a4401461037c576100f3565b8063897b0d5d1461022a5780638e7ea5b2146102555780639db2eb3614610280578063a3ec138d146102be576100f3565b80633477ee2e116100c65780633477ee2e146101a2578063462e91ec146101e0578063490b8c84146101fc5780636a770be414610213576100f3565b80630121b93f146100f85780630629ecae1461012157806325709fa61461014c5780632e6997fe14610177575b600080fd5b34801561010457600080fd5b5061011f600480360381019061011a9190611232565b6103a7565b005b34801561012d57600080fd5b5061013661065d565b604051610143919061138d565b60405180910390f35b34801561015857600080fd5b5061016161071c565b60405161016e91906113ca565b60405180910390f35b34801561018357600080fd5b5061018c610733565b6040516101999190611574565b60405180910390f35b3480156101ae57600080fd5b506101c960048036038101906101c49190611232565b61082e565b6040516101d79291906115ef565b60405180910390f35b6101fa60048036038101906101f59190611754565b6108ea565b005b34801561020857600080fd5b50610211610a34565b005b34801561021f57600080fd5b50610228610b35565b005b34801561023657600080fd5b5061023f610c36565b60405161024c91906113ca565b60405180910390f35b34801561026157600080fd5b5061026a610c4d565b604051610277919061179d565b60405180910390f35b34801561028c57600080fd5b506102a760048036038101906102a29190611232565b610e69565b6040516102b59291906117ce565b60405180910390f35b3480156102ca57600080fd5b506102e560048036038101906102e09190611823565b610ebd565b6040516102f3929190611850565b60405180910390f35b34801561030857600080fd5b50610323600480360381019061031e9190611232565b610eee565b6040516103319291906115ef565b60405180910390f35b34801561034657600080fd5b5061034f61101a565b005b34801561035d57600080fd5b50610366611136565b604051610373919061179d565b60405180910390f35b34801561038857600080fd5b506103916111c4565b60405161039e9190611879565b60405180910390f35b60011515600260009054906101000a900460ff161515146103fd576040517f08c379a00000000000000000000000000000000000000000000000000000000081526004016103f4906118e0565b60405180910390fd5b600360003373ffffffffffffffffffffffffffffffffffffffff1673ffffffffffffffffffffffffffffffffffffffff16815260200190815260200160002060000160009054906101000a900460ff161561048d576040517f08c379a00000000000000000000000000000000000000000000000000000000081526004016104849061194c565b60405180910390fd5b60048054905081106104d4576040517f08c379a00000000000000000000000000000000000000000000000000000000081526004016104cb906119b8565b60405180910390fd5b600481815481106104e8576104e76119d8565b5b9060005260206000209060020201600101600081548092919061050a90611a36565b91905055506001600360003373ffffffffffffffffffffffffffffffffffffffff1673ffffffffffffffffffffffffffffffffffffffff16815260200190815260200160002060000160006101000a81548160ff02191690831515021790555080600360003373ffffffffffffffffffffffffffffffffffffffff1673ffffffffffffffffffffffffffffffffffffffff16815260200190815260200160002060010181905550600560405180604001604052803373ffffffffffffffffffffffffffffffffffffffff16815260200183815250908060018154018082558091505060019003906000526020600020906002020160009091909190915060008201518160000160006101000a81548173ffffffffffffffffffffffffffffffffffffffff021916908373ffffffffffffffffffffffffffffffffffffffff16021790555060208201518160010155505050565b60606005805480602002602001604051908101604052809291908181526020016000905b8282101561071357838290600052602060002090600202016040518060400160405290816000820160009054906101000a900473ffffffffffffffffffffffffffffffffffffffff1673ffffffffffffffffffffffffffffffffffffffff1673ffffffffffffffffffffffffffffffffffffffff16815260200160018201548152505081526020019060010190610681565b50505050905090565b6000600260009054906101000a900460ff16905090565b60606004805480602002602001604051908101604052809291908181526020016000905b82821015610825578382906000526020600020906002020160405180604001604052908160008201805461078a90611aad565b80601f01602080910402602001604051908101604052809291908181526020018280546107b690611aad565b80156108035780601f106107d857610100808354040283529160200191610803565b820191906000526020600020905b8154815290600101906020018083116107e657829003601f168201915b5050505050815260200160018201548152505081526020019060010190610757565b50505050905090565b6004818154811061083e57600080fd5b906000526020600020906002020160009150905080600001805461086190611aad565b80601f016020809104026020016040519081016040528092919081815260200182805461088d90611aad565b80156108da5780601f106108af576101008083540402835291602001916108da565b820191906000526020600020905b8154815290600101906020018083116108bd57829003601f168201915b5050505050908060010154905082565b60008054906101000a900473ffffffffffffffffffffffffffffffffffffffff1673ffffffffffffffffffffffffffffffffffffffff163373ffffffffffffffffffffffffffffffffffffffff1614610978576040517f08c379a000000000000000000000000000000000000000000000000000000000815260040161096f90611b2a565b60405180910390fd5b60001515600260009054906101000a900460ff161515146109ce576040517f08c379a00000000000000000000000000000000000000000000000000000000081526004016109c590611b96565b60405180910390fd5b60046040518060400160405280838152602001600081525090806001815401808255809150506001900390600052602060002090600202016000909190919091506000820151816000019081610a249190611d62565b5060208201518160010155505050565b60008054906101000a900473ffffffffffffffffffffffffffffffffffffffff1673ffffffffffffffffffffffffffffffffffffffff163373ffffffffffffffffffffffffffffffffffffffff1614610ac2576040517f08c379a0000000000000000000000000000000000000000000000000000000008152600401610ab990611b2a565b60405180910390fd5b60011515600260019054906101000a900460ff16151514610b18576040517f08c379a0000000000000000000000000000000000000000000000000000000008152600401610b0f90611e80565b60405180910390fd5b6000600260016101000a81548160ff021916908315150217905550565b60008054906101000a900473ffffffffffffffffffffffffffffffffffffffff1673ffffffffffffffffffffffffffffffffffffffff163373ffffffffffffffffffffffffffffffffffffffff1614610bc3576040517f08c379a0000000000000000000000000000000000000000000000000000000008152600401610bba90611b2a565b60405180910390fd5b60001515600260009054906101000a900460ff16151514610c19576040517f08c379a0000000000000000000000000000000000000000000000000000000008152600401610c1090611b96565b60405180910390fd5b6001600260006101000a81548160ff021916908315150217905550565b6000600260019054906101000a900460ff16905090565b606060008054906101000a900473ffffffffffffffffffffffffffffffffffffffff1673ffffffffffffffffffffffffffffffffffffffff163373ffffffffffffffffffffffffffffffffffffffff1614610cdd576040517f08c379a0000000000000000000000000000000000000000000000000000000008152600401610cd490611b2a565b60405180910390fd5b60011515600260019054906101000a900460ff16151514610d33576040517f08c379a0000000000000000000000000000000000000000000000000000000008152600401610d2a90611e80565b60405180910390fd5b6000606060005b600480549050811015610e60578260048281548110610d5c57610d5b6119d8565b5b9060005260206000209060020201600101541115610e4d5760048181548110610d8857610d876119d8565b5b906000526020600020906002020160010154925060048181548110610db057610daf6119d8565b5b90600052602060002090600202016000018054610dcc90611aad565b80601f0160208091040260200160405190810160405280929190818152602001828054610df890611aad565b8015610e455780601f10610e1a57610100808354040283529160200191610e45565b820191906000526020600020905b815481529060010190602001808311610e2857829003601f168201915b505050505091505b8080610e5890611a36565b915050610d3a565b50809250505090565b60058181548110610e7957600080fd5b90600052602060002090600202016000915090508060000160009054906101000a900473ffffffffffffffffffffffffffffffffffffffff16908060010154905082565b60036020528060005260406000206000915090508060000160009054906101000a900460ff16908060010154905082565b606060006004805490508310610f39576040517f08c379a0000000000000000000000000000000000000000000000000000000008152600401610f3090611eec565b60405180910390fd5b600060048481548110610f4f57610f4e6119d8565b5b9060005260206000209060020201604051806040016040529081600082018054610f7890611aad565b80601f0160208091040260200160405190810160405280929190818152602001828054610fa490611aad565b8015610ff15780601f10610fc657610100808354040283529160200191610ff1565b820191906000526020600020905b815481529060010190602001808311610fd457829003601f168201915b505050505081526020016001820154815250509050806000015181602001519250925050915091565b60008054906101000a900473ffffffffffffffffffffffffffffffffffffffff1673ffffffffffffffffffffffffffffffffffffffff163373ffffffffffffffffffffffffffffffffffffffff16146110a8576040517f08c379a000000000000000000000000000000000000000000000000000000000815260040161109f90611b2a565b60405180910390fd5b60011515600260009054906101000a900460ff161515146110fe576040517f08c379a00000000000000000000000000000000000000000000000000000000081526004016110f5906118e0565b60405180910390fd5b6000600260006101000a81548160ff0219169083151502179055506001600260016101000a81548160ff021916908315150217905550565b6001805461114390611aad565b80601f016020809104026020016040519081016040528092919081815260200182805461116f90611aad565b80156111bc5780601f10611191576101008083540402835291602001916111bc565b820191906000526020600020905b81548152906001019060200180831161119f57829003601f168201915b505050505081565b60008054906101000a900473ffffffffffffffffffffffffffffffffffffffff1681565b6000604051905090565b600080fd5b600080fd5b6000819050919050565b61120f816111fc565b811461121a57600080fd5b50565b60008135905061122c81611206565b92915050565b600060208284031215611248576112476111f2565b5b60006112568482850161121d565b91505092915050565b600081519050919050565b600082825260208201905092915050565b6000819050602082019050919050565b600073ffffffffffffffffffffffffffffffffffffffff82169050919050565b60006112b68261128b565b9050919050565b6112c6816112ab565b82525050565b6112d5816111fc565b82525050565b6040820160008201516112f160008501826112bd565b50602082015161130460208501826112cc565b50505050565b600061131683836112db565b60408301905092915050565b6000602082019050919050565b600061133a8261125f565b611344818561126a565b935061134f8361127b565b8060005b83811015611380578151611367888261130a565b975061137283611322565b925050600181019050611353565b5085935050505092915050565b600060208201905081810360008301526113a7818461132f565b905092915050565b60008115159050919050565b6113c4816113af565b82525050565b60006020820190506113df60008301846113bb565b92915050565b600081519050919050565b600082825260208201905092915050565b6000819050602082019050919050565b600081519050919050565b600082825260208201905092915050565b60005b8381101561144b578082015181840152602081019050611430565b60008484015250505050565b6000601f19601f8301169050919050565b600061147382611411565b61147d818561141c565b935061148d81856020860161142d565b61149681611457565b840191505092915050565b600060408301600083015184820360008601526114be8282611468565b91505060208301516114d360208601826112cc565b508091505092915050565b60006114ea83836114a1565b905092915050565b6000602082019050919050565b600061150a826113e5565b61151481856113f0565b93508360208202850161152685611401565b8060005b85811015611562578484038952815161154385826114de565b945061154e836114f2565b925060208a0199505060018101905061152a565b50829750879550505050505092915050565b6000602082019050818103600083015261158e81846114ff565b905092915050565b600082825260208201905092915050565b60006115b282611411565b6115bc8185611596565b93506115cc81856020860161142d565b6115d581611457565b840191505092915050565b6115e9816111fc565b82525050565b6000604082019050818103600083015261160981856115a7565b905061161860208301846115e0565b9392505050565b600080fd5b600080fd5b7f4e487b7100000000000000000000000000000000000000000000000000000000600052604160045260246000fd5b61166182611457565b810181811067ffffffffffffffff821117156116805761167f611629565b5b80604052505050565b60006116936111e8565b905061169f8282611658565b919050565b600067ffffffffffffffff8211156116bf576116be611629565b5b6116c882611457565b9050602081019050919050565b82818337600083830152505050565b60006116f76116f2846116a4565b611689565b90508281526020810184848401111561171357611712611624565b5b61171e8482856116d5565b509392505050565b600082601f83011261173b5761173a61161f565b5b813561174b8482602086016116e4565b91505092915050565b60006020828403121561176a576117696111f2565b5b600082013567ffffffffffffffff811115611788576117876111f7565b5b61179484828501611726565b91505092915050565b600060208201905081810360008301526117b781846115a7565b905092915050565b6117c8816112ab565b82525050565b60006040820190506117e360008301856117bf565b6117f060208301846115e0565b9392505050565b611800816112ab565b811461180b57600080fd5b50565b60008135905061181d816117f7565b92915050565b600060208284031215611839576118386111f2565b5b60006118478482850161180e565b91505092915050565b600060408201905061186560008301856113bb565b61187260208301846115e0565b9392505050565b600060208201905061188e60008301846117bf565b92915050565b7f766f74696e6720686173206e6f74207374617274656420796574000000000000600082015250565b60006118ca601a83611596565b91506118d582611894565b602082019050919050565b600060208201905081810360008301526118f9816118bd565b9050919050565b7f596f75206861766520616c726561647920766f7465642e000000000000000000600082015250565b6000611936601783611596565b915061194182611900565b602082019050919050565b6000602082019050818103600083015261196581611929565b9050919050565b7f496e76616c69642063616e64696461746520696e6465782e0000000000000000600082015250565b60006119a2601883611596565b91506119ad8261196c565b602082019050919050565b600060208201905081810360008301526119d181611995565b9050919050565b7f4e487b7100000000000000000000000000000000000000000000000000000000600052603260045260246000fd5b7f4e487b7100000000000000000000000000000000000000000000000000000000600052601160045260246000fd5b6000611a41826111fc565b91507fffffffffffffffffffffffffffffffffffffffffffffffffffffffffffffffff8203611a7357611a72611a07565b5b600182019050919050565b7f4e487b7100000000000000000000000000000000000000000000000000000000600052602260045260246000fd5b60006002820490506001821680611ac557607f821691505b602082108103611ad857611ad7611a7e565b5b50919050565b7f4e6f74207468652061646d696e00000000000000000000000000000000000000600082015250565b6000611b14600d83611596565b9150611b1f82611ade565b602082019050919050565b60006020820190508181036000830152611b4381611b07565b9050919050565b7f766f74696e672068617320616c72656164792073746172746564000000000000600082015250565b6000611b80601a83611596565b9150611b8b82611b4a565b602082019050919050565b60006020820190508181036000830152611baf81611b73565b9050919050565b60008190508160005260206000209050919050565b60006020601f8301049050919050565b600082821b905092915050565b600060088302611c187fffffffffffffffffffffffffffffffffffffffffffffffffffffffffffffffff82611bdb565b611c228683611bdb565b95508019841693508086168417925050509392505050565b6000819050919050565b6000611c5f611c5a611c55846111fc565b611c3a565b6111fc565b9050919050565b6000819050919050565b611c7983611c44565b611c8d611c8582611c66565b848454611be8565b825550505050565b600090565b611ca2611c95565b611cad818484611c70565b505050565b5b81811015611cd157611cc6600082611c9a565b600181019050611cb3565b5050565b601f821115611d1657611ce781611bb6565b611cf084611bcb565b81016020851015611cff578190505b611d13611d0b85611bcb565b830182611cb2565b50505b505050565b600082821c905092915050565b6000611d3960001984600802611d1b565b1980831691505092915050565b6000611d528383611d28565b9150826002028217905092915050565b611d6b82611411565b67ffffffffffffffff811115611d8457611d83611629565b5b611d8e8254611aad565b611d99828285611cd5565b600060209050601f831160018114611dcc5760008415611dba578287015190505b611dc48582611d46565b865550611e2c565b601f198416611dda86611bb6565b60005b82811015611e0257848901518255600182019150602085019450602081019050611ddd565b86831015611e1f5784890151611e1b601f891682611d28565b8355505b6001600288020188555050505b505050505050565b7f766f74696e6720686173206e6f7420656e646564207965740000000000000000600082015250565b6000611e6a601883611596565b9150611e7582611e34565b602082019050919050565b60006020820190508181036000830152611e9981611e5d565b9050919050565b7f496e76616c69642063616e64696461746520696e646578000000000000000000600082015250565b6000611ed6601783611596565b9150611ee182611ea0565b602082019050919050565b60006020820190508181036000830152611f0581611ec9565b905091905056fea26469706673582212209ec7612f8bc2b17e1bd1317483430354dcd513661a3d19de7fe27e81a976a65d64736f6c63430008130033",
  "linkReferences": {},
  "deployedLinkReferences": {}
}