{
  "_format": "hh-sol-artifact-1",
  "contractName": "Voting",
  "sourceName": "contracts/Voting.sol",
  "abi": [
    {
      "inputs": [],
      "stateMutability": "nonpayable",
      "type": "constructor"
    },
    {
      "inputs": [
        {
          "internalType": "string",
          "name": "_name",
          "type": "string"
        },
        {
          "internalType": "uint256",
          "name": "_age",
          "type": "uint256"
        }
      ],
      "name": "addCandidate",
      "outputs": [],
      "stateMutability": "nonpayable",
      "type": "function"
    },
    {
      "inputs": [
        {
          "internalType": "string",
          "name": "_name",
          "type": "string"
        },
        {
          "internalType": "string",
          "name": "_votingEnd",
          "type": "string"
        },
        {
          "internalType": "uint256[]",
          "name": "_candidateIndexes",
          "type": "uint256[]"
        }
      ],
      "name": "addPoll",
      "outputs": [],
      "stateMutability": "nonpayable",
      "type": "function"
    },
    {
      "inputs": [],
      "name": "getCandidates",
      "outputs": [
        {
          "components": [
            {
              "internalType": "string",
              "name": "name",
              "type": "string"
            },
            {
              "internalType": "uint256",
              "name": "age",
              "type": "uint256"
            },
            {
              "internalType": "uint256",
              "name": "voteCount",
              "type": "uint256"
            }
          ],
          "internalType": "struct Voting.Candidate[]",
          "name": "",
          "type": "tuple[]"
        }
      ],
      "stateMutability": "view",
      "type": "function"
    },
    {
      "inputs": [
        {
          "internalType": "uint256",
          "name": "",
          "type": "uint256"
        }
      ],
      "name": "polls",
      "outputs": [
        {
          "internalType": "string",
          "name": "name",
          "type": "string"
        },
        {
          "internalType": "string",
          "name": "votingEnd",
          "type": "string"
        },
        {
          "internalType": "bool",
          "name": "completed",
          "type": "bool"
        }
      ],
      "stateMutability": "view",
      "type": "function"
    },
    {
      "inputs": [
        {
          "internalType": "address",
          "name": "",
          "type": "address"
        }
      ],
      "name": "voters",
      "outputs": [
        {
          "internalType": "bool",
          "name": "",
          "type": "bool"
        }
      ],
      "stateMutability": "view",
      "type": "function"
    }
  ],
  "bytecode": "0x608060405234801561001057600080fd5b5033600160006101000a81548173ffffffffffffffffffffffffffffffffffffffff021916908373ffffffffffffffffffffffffffffffffffffffff160217905550610f92806100616000396000f3fe608060405234801561001057600080fd5b50600436106100575760003560e01c806306a49fce1461005c578063193282841461007a578063a3ec138d14610096578063ac2f0074146100c6578063e23cec7b146100f8575b600080fd5b610064610114565b604051610071919061079f565b60405180910390f35b610094600480360381019061008f91906109fe565b610219565b005b6100b060048036038101906100ab9190610b03565b610332565b6040516100bd9190610b4b565b60405180910390f35b6100e060048036038101906100db9190610b66565b610352565b6040516100ef93929190610bdd565b60405180910390f35b610112600480360381019061010d9190610c22565b6104a9565b005b60606003805480602002602001604051908101604052809291908181526020016000905b82821015610210578382906000526020600020906003020160405180606001604052908160008201805461016b90610cad565b80601f016020809104026020016040519081016040528092919081815260200182805461019790610cad565b80156101e45780601f106101b9576101008083540402835291602001916101e4565b820191906000526020600020905b8154815290600101906020018083116101c757829003601f168201915b505050505081526020016001820154815260200160028201548152505081526020019060010190610138565b50505050905090565b600160009054906101000a900473ffffffffffffffffffffffffffffffffffffffff1673ffffffffffffffffffffffffffffffffffffffff163373ffffffffffffffffffffffffffffffffffffffff161461027357600080fd5b6000604051806080016040528085815260200184815260200183815260200160001515815250908060018154018082558091505060019003906000526020600020906004020160009091909190915060008201518160000190816102d79190610e8a565b5060208201518160010190816102ed9190610e8a565b50604082015181600201908051906020019061030a92919061057a565b5060608201518160030160006101000a81548160ff0219169083151502179055505050505050565b60026020528060005260406000206000915054906101000a900460ff1681565b6000818154811061036257600080fd5b906000526020600020906004020160009150905080600001805461038590610cad565b80601f01602080910402602001604051908101604052809291908181526020018280546103b190610cad565b80156103fe5780601f106103d3576101008083540402835291602001916103fe565b820191906000526020600020905b8154815290600101906020018083116103e157829003601f168201915b50505050509080600101805461041390610cad565b80601f016020809104026020016040519081016040528092919081815260200182805461043f90610cad565b801561048c5780601f106104615761010080835404028352916020019161048c565b820191906000526020600020905b81548152906001019060200180831161046f57829003601f168201915b5050505050908060030160009054906101000a900460ff16905083565b600160009054906101000a900473ffffffffffffffffffffffffffffffffffffffff1673ffffffffffffffffffffffffffffffffffffffff163373ffffffffffffffffffffffffffffffffffffffff161461050357600080fd5b6003604051806060016040528084815260200183815260200160008152509080600181540180825580915050600190039060005260206000209060030201600090919091909150600082015181600001908161055f9190610e8a565b50602082015181600101556040820151816002015550505050565b8280548282559060005260206000209081019282156105b6579160200282015b828111156105b557825182559160200191906001019061059a565b5b5090506105c391906105c7565b5090565b5b808211156105e05760008160009055506001016105c8565b5090565b600081519050919050565b600082825260208201905092915050565b6000819050602082019050919050565b600081519050919050565b600082825260208201905092915050565b60005b8381101561064a57808201518184015260208101905061062f565b60008484015250505050565b6000601f19601f8301169050919050565b600061067282610610565b61067c818561061b565b935061068c81856020860161062c565b61069581610656565b840191505092915050565b6000819050919050565b6106b3816106a0565b82525050565b600060608301600083015184820360008601526106d68282610667565b91505060208301516106eb60208601826106aa565b5060408301516106fe60408601826106aa565b508091505092915050565b600061071583836106b9565b905092915050565b6000602082019050919050565b6000610735826105e4565b61073f81856105ef565b93508360208202850161075185610600565b8060005b8581101561078d578484038952815161076e8582610709565b94506107798361071d565b925060208a01995050600181019050610755565b50829750879550505050505092915050565b600060208201905081810360008301526107b9818461072a565b905092915050565b6000604051905090565b600080fd5b600080fd5b600080fd5b600080fd5b7f4e487b7100000000000000000000000000000000000000000000000000000000600052604160045260246000fd5b61081782610656565b810181811067ffffffffffffffff82111715610836576108356107df565b5b80604052505050565b60006108496107c1565b9050610855828261080e565b919050565b600067ffffffffffffffff821115610875576108746107df565b5b61087e82610656565b9050602081019050919050565b82818337600083830152505050565b60006108ad6108a88461085a565b61083f565b9050828152602081018484840111156108c9576108c86107da565b5b6108d484828561088b565b509392505050565b600082601f8301126108f1576108f06107d5565b5b813561090184826020860161089a565b91505092915050565b600067ffffffffffffffff821115610925576109246107df565b5b602082029050602081019050919050565b600080fd5b610944816106a0565b811461094f57600080fd5b50565b6000813590506109618161093b565b92915050565b600061097a6109758461090a565b61083f565b9050808382526020820190506020840283018581111561099d5761099c610936565b5b835b818110156109c657806109b28882610952565b84526020840193505060208101905061099f565b5050509392505050565b600082601f8301126109e5576109e46107d5565b5b81356109f5848260208601610967565b91505092915050565b600080600060608486031215610a1757610a166107cb565b5b600084013567ffffffffffffffff811115610a3557610a346107d0565b5b610a41868287016108dc565b935050602084013567ffffffffffffffff811115610a6257610a616107d0565b5b610a6e868287016108dc565b925050604084013567ffffffffffffffff811115610a8f57610a8e6107d0565b5b610a9b868287016109d0565b9150509250925092565b600073ffffffffffffffffffffffffffffffffffffffff82169050919050565b6000610ad082610aa5565b9050919050565b610ae081610ac5565b8114610aeb57600080fd5b50565b600081359050610afd81610ad7565b92915050565b600060208284031215610b1957610b186107cb565b5b6000610b2784828501610aee565b91505092915050565b60008115159050919050565b610b4581610b30565b82525050565b6000602082019050610b606000830184610b3c565b92915050565b600060208284031215610b7c57610b7b6107cb565b5b6000610b8a84828501610952565b91505092915050565b600082825260208201905092915050565b6000610baf82610610565b610bb98185610b93565b9350610bc981856020860161062c565b610bd281610656565b840191505092915050565b60006060820190508181036000830152610bf78186610ba4565b90508181036020830152610c0b8185610ba4565b9050610c1a6040830184610b3c565b949350505050565b60008060408385031215610c3957610c386107cb565b5b600083013567ffffffffffffffff811115610c5757610c566107d0565b5b610c63858286016108dc565b9250506020610c7485828601610952565b9150509250929050565b7f4e487b7100000000000000000000000000000000000000000000000000000000600052602260045260246000fd5b60006002820490506001821680610cc557607f821691505b602082108103610cd857610cd7610c7e565b5b50919050565b60008190508160005260206000209050919050565b60006020601f8301049050919050565b600082821b905092915050565b600060088302610d407fffffffffffffffffffffffffffffffffffffffffffffffffffffffffffffffff82610d03565b610d4a8683610d03565b95508019841693508086168417925050509392505050565b6000819050919050565b6000610d87610d82610d7d846106a0565b610d62565b6106a0565b9050919050565b6000819050919050565b610da183610d6c565b610db5610dad82610d8e565b848454610d10565b825550505050565b600090565b610dca610dbd565b610dd5818484610d98565b505050565b5b81811015610df957610dee600082610dc2565b600181019050610ddb565b5050565b601f821115610e3e57610e0f81610cde565b610e1884610cf3565b81016020851015610e27578190505b610e3b610e3385610cf3565b830182610dda565b50505b505050565b600082821c905092915050565b6000610e6160001984600802610e43565b1980831691505092915050565b6000610e7a8383610e50565b9150826002028217905092915050565b610e9382610610565b67ffffffffffffffff811115610eac57610eab6107df565b5b610eb68254610cad565b610ec1828285610dfd565b600060209050601f831160018114610ef45760008415610ee2578287015190505b610eec8582610e6e565b865550610f54565b601f198416610f0286610cde565b60005b82811015610f2a57848901518255600182019150602085019450602081019050610f05565b86831015610f475784890151610f43601f891682610e50565b8355505b6001600288020188555050505b50505050505056fea2646970667358221220ef3b6b2b549f5439d0c01bb99f62c8a650ee5abf2966dda9acd8cde4fdd6684964736f6c63430008130033",
  "linkReferences": {},
  "deployedLinkReferences": {}
}